:020000020000FC
:020000006FC3CC
:0200040086C2B2
:0200480093C45F
:1000680008E90093C10006E00093C20008953F9399
:100078000F931F93E2E0F1E0330FE30F3327F31FF1
:10008800059114911093C5000093C4001F910F911E
:100098003F910895313021F034E03093C200089543
:1000A80036E03093C20008950F930091C2000E7C91
:1000B80030FB04F931FB05F90093C2000F91089554
:1000C8003F933091C00035FFFCCF3F913093C6007D
:1000D80008950091C00005FDFCCF0091C600089569
:1000E800EF93FF933F9335913323A89511F0E8DF01
:1000F800FACF3F91FF91EF9108954003A001CF00FF
:1001080067000F93032F042B002369F00027315059
:10011800400B0FE00F9300270A950A95F1F70F910E
:100128000A95C1F7EFCF0F9108950F931F932F935F
:1001380022E0022F0A95032F21F0069506950695D1
:1001480006950F703F9330E3300F3A3318F00A509A
:1001580031E4300FB5DF3F912A9559F72F911F9160
:100168000F91089571D0002730FB02F932FB01F995
:1001780031FB00F9419547FB04F957FB03F9006887
:1001880047FD419557FD5195002E142E252E23E04D
:1001980092D0089559D0002730FB02F932FB01F9BB
:1001A80031FB00F9002E142E252E23E084D008956B
:1001B8004BD05195002730FB02F932FB01F931FB96
:1001C80000F917E001270068002E142E252E23E0E1
:1001D80072D03AD05195042E152E22E06CD0089595
:1001E80033D0112732FB11F920911401022F02702C
:1001F800011791F021F92093140100E430FB05F96F
:1002080031FB04F9002E1124222423E054D0442386
:1002180019F4552309F417C0002730FB05F931FB01
:1002280004F946FB00F947FB01F956FB02F957FBB5
:1002380003F90064002E042F0F73102E052F0F737F
:10024800202E23E038D00895F894462F77FF0FC06A
:100258000F931F93062F172F01951095103022F03A
:1002680011F4003808F040E81F910F9106C0703073
:1002780022F011F46F3708F04FE7582F97FF0FC09F
:100288000F931F93082F192F01951095103022F006
:1002980011F4003808F050E81F910F9106C0903013
:1002A80022F011F48F3708F05FE766277727882751
:1002B8009927789408953F93BB27AA273D9100DF9B
:1002C8002A95E1F73F91089515E005B1006205B957
:1002D80041E034EFA89515DF05B10F7D05B941E080
:1002E80034EFA8950EDF1A9581F715E01A9561F39A
:1002F800F8943FEF7DD07894003031F756D0B6F3BC
:100308004CD00A3F99F742E038E5FBDE4ED0102F7B
:100318004CD043D01A3A09F0D7CF03E000930E012E
:100328006627772788279927089537D015E01A95E3
:1003380081F03F93F89433EF5BD03F9159D0789494
:1003480034D0AEF32AD00C3F21F00A3F81F7309326
:100358001001089515E01A9549F0F89449D0789459
:1003680024D01BD0C6F30A3F11F0F5CFADCF0895C6
:10037800689415E01A9551F0F89434EF39D07894D0
:1003880014D00BD0BEF30A3F11F0F4CFE8940091DB
:10039800140101600093140108950F93002700933E
:1003A8000C0100930D010F9108951F932F933F9314
:1003B800AF93BF9368941127222731E0130F30E0E1
:1003C800231F283C79F000910C0130910D01031B8B
:1003D800A2F399F3BB27A8E0A30F339530930D013F
:1003E8000C91E894BF91AF913F912F911F9108957F
:1003F8001F932F933F930AB10B7F0AB90BB1046087
:100408000BB90AB10F7E0AB90BB100610BB994E0C0
:1004180080EB0197F1F70BB10B7F0BB90AB10460C0
:100428000AB994E080EB0197F1F70BB10F7E0BB995
:100438000AB100610AB980EA00008150E9F70AB1FF
:100448000B7F0AB90BB104600BB980EA0000815038
:10045800E9F70027112721E0020F20E0121F1A30C8
:1004680019F04A99F8CF0EC00AB10B7F0AB90BB13F
:1004780004600BB90AB10F7E0AB90BB100610BB960
:1004880001E03CC028E011E0032F01700F9339F020
:100498000AB10F7E0AB90BB100610BB906C00BB1E6
:1004A8000F7E0BB90AB100610AB90F9110274A9B58
:1004B800FECF4A99FECF36952A9531F7112339F0A8
:1004C8000AB10F7E0AB90BB100610BB906C00BB1B6
:1004D8000F7E0BB90AB100610AB94A9BFECF4A994F
:1004E800FECF0AB10F7E0AB90BB100610BB94A9B66
:1004F800FECF4A99FECF4A9BFECF002711271160F5
:100508001CBB3F912F911F9108950F930FB70F9325
:100518001F932F933F934F93AF93BF9300271127B8
:1005280021E0020F2227121F113019F04A99F8CF43
:1005380001C068C04A9BFECF4C991FC0442728E0E1
:1005480000274A99FECF4A9BFECF10E84C9B112703
:100558000695012B41272A95A1F7302F4A99FECFFE
:100568004A9BFECF10E84C9911274A99FECF4A9B27
:10057800FECF4C9B02C0141721F00FDF3EEF38DF8F
:10058800CFCF00910C01083009F43CC0BB27A8E08C
:10059800A00F039500930C013C9300911401102FB8
:1005A800117081F100910C0110910E01011752F1A7
:1005B80036D084FC04C0690D9924791D03C0919438
:1005C8006919704085FE05C0A1948A0DAA249A1D58
:1005D80002C08A199040182D177000910B0101175D
:1005E80081F010930B0100910A01083051F0039536
:1005F80000930A01B1E0A09108011D93A770A09390
:100608000801CBDE002701600CBBBF91AF914F9171
:100618003F912F911F910F910FBF0F9118950AB11C
:1006280080FA05F981FA06F90AB942E0392D303025
:1006380021F120911101237084FC319584FC2395CC
:1006480084FE2A951CE0237021F0022F16950A9546
:10065800E9F705B112FB00F913FB01F905B98F930E
:1006680080EA00008150E9F78F913A9539F70091B7
:1006780011010C7F022B009311013A2D303041F10A
:100688002091110126952695237085FC319585FECC
:10069800239585FC2A951CE0237021F0022F1695DE
:1006A8000A95E9F705B112FB02F913FB03F905B93D
:1006B8008F9380EA00008150E9F78F913A9539F7D6
:1006C80000911101037F220F220F022B00931101C9
:1006D8004A9509F0ABCF089511241FBECFEFD8E09B
:1006E800CDBFDEBF34B730931201332734BF0AB110
:1006F8000B7E0AB90BB104610BB9002702600093A5
:100708006900002701600DBB002701600CBB04B124
:10071800036004B905B10C7F05B904B10C6004B9D4
:1007280005B1037F05B90AB10F790AB90BB10F7981
:100738000BB904B10F7E04B905B10F7E05B90AB132
:100748000F770AB90BB100680BB904B1006204B99C
:1007580087DC30E08CDC21DEA89508E1009360009E
:100768000EE00093600030911201387069F433E0B4
:10077800309315013CE330930F01002700931101DA
:1007880034E03093130101C0FFCF009308010093B8
:10079800090100930A0100930B01009314014427F7
:1007A80034E6AFDC112711601CBB78949EDD05B1DF
:1007B800006205B9442734E6A4DC05B10F7D05B90C
:1007C800A89530911201387089F020911301322FC9
:1007D80033704DDC322F3695369531705BDC3870CE
:1007E80011F033E061DC3091100104C009B13CE341
:1007F80004FD38EC9ADDD1DD3AEEACDDB9DD97D0F9
:10080800A89500911401007879F420911401022F21
:10081800047019B117FB12F922F92093140114700E
:10082800011711F00AF041D00091150104FDE8CF3D
:1008380030910F01332369F400910A01002339F440
:10084800062F072B21F4082F092B09F4D9CF06D03E
:10085800D7CF6BDD332730930F01D2CF00910A0138
:10086800002351F00A9500930A01B1E0A091090113
:100878003D91A770A093090130910B0105B1006269
:1008880005B9009114010077003531F0003031F0DE
:10089800003731F07FDC05C065DC03C089DC01C0AE
:1008A8009FDC05B10F7D05B90895332730931301F7
:1008B800DEDB4CD044273EE024DC3DE401DC3CE3B5
:1008C80030930F0130911501307E3360309315015C
:1008D800F894662777278827992760930A016093F9
:1008E8000B016093080160930901789408950091C1
:1008F80014010F7800650093140131E0CBDB33E07D
:10090800D3DB3091130133703C60309313010895A9
:10091800009114010F7800610093140131E0BADBF3
:1009280030911301337034603093130108950091AE
:1009380014010F7800600093140131E0ABDB3091B3
:10094800130133703460309313010895009114013A
:100958000F7800670093140130E09CDB309113019D
:1009680033703093130108950F930FB70F931F93AC
:100978002F933F930091C6000F7720911401122FF7
:1009880013FD97C02227E2E0FBE01591112349F0FF
:10099800011709F499C011E0E10F1127F11F239500
:1009A800F4CF209114010A3209F47FC00434F9F01D
:1009B800003509F473C0033509F468C0043509F437
:1009C80067C0053509F466C0063509F465C0033605
:1009D800A1F00636C1F00B36F9F00D3601F10337F8
:1009E80039F1043761F1053009F446C077C0309118
:1009F800150130613093150171C0E2E1FBE070DB55
:100A080030E05EDB6BC03091140130773695369557
:100A18003695306155DB62C033E352DB5FC000912D
:100A28001401006800931401332721DB80DF56C0CE
:100A38003091150134FB3FE036F942DB4FC0E2EF5D
:100A4800FAE0022F06950695069506950770E00FC1
:100A58000027F01F349134DB009115010F7104FD5C
:100A680008C0EAEFFAE0E00F0027F01F349128DB16
:100A780035C034E425DB32C030FB02F932FB01F922
:100A880031FB00F9002E23E016DC28C030DF26C039
:100A98003FDF24C04CDF22C059DF20C03091150150
:100AA800306130931501DADE19C0286020931401F3
:100AB80015C0277F209314010E362AF0023718F448
:100AC800302F3E56D4DA0AC030911501307E322BD1
:100AD80030931501349130930F0100C03F912F914D
:100AE8001F910F910FBF0F911895555457423F53BF
:100AF80041564A4B4C524D514E4F4A0A4B144C28C2
:100B080052284D3C51644EC800000D0A4C414D45D9
:100B18004D4F555345434F4E564552544552205616
:100B2800312E313420204259204A4F484E20224C41
:100B3800414D45475559222057494C42455254206A
:100B480056494C4C414D4F520D0A323032312D32FC
:100B5800303232204D4549444F2D54454B204B5996
:100B68005320544543482048415244574152452058
:100B78004449564953494F4E0D0A52454C45415335
:100B8800454420554E444552204D504C2056322065
:100B98000D0A2254484552452053484F554C44208D
:100BA80042452046494C5445525320414741494EFD
:100BB8005354203C50524F4A4543544E414D453EB4
:0E0BC8002D444556205459504553220D0A0025
:00000001FF
