:020000020000FC
:02000000ACC38F
:0200040086C2B2
:0200380021C3E2
:02004800DFC413
:1000680008E90093C10006E00093C20008953F9399
:100078000F931F93E2E0F1E0330FE30F3327F31FF1
:10008800059114911093C5000093C4001F910F911E
:100098003F910895313021F034E03093C200089543
:1000A80036E03093C20008950F930091C2000E7C91
:1000B80030FB04F931FB05F90093C2000F91089554
:1000C8003F933091C00035FFFCCF3F913093C6007D
:1000D80008950091C00005FDFCCF0091C600089569
:1000E800EF93FF933F9335913323A89511F0E8DF01
:1000F800FACF3F91FF91EF9108954003A001CF00FF
:1001080067000F93032F042B002369F00027315059
:10011800400B0FE00F9300270A950A95F1F70F910E
:100128000A95C1F7EFCF0F9108950F931F932F935F
:1001380022E0022F0A95032F21F0069506950695D1
:1001480006950F703F9330E3300F3A3318F00A509A
:1001580031E4300FB5DF3F912A9559F72F911F9160
:100168000F91089571D0002730FB02F932FB01F995
:1001780031FB00F9419547FB04F957FB03F9006887
:1001880047FD419557FD5195002E142E252E23E04D
:1001980092D0089559D0002730FB02F932FB01F9BB
:1001A80031FB00F9002E142E252E23E084D008956B
:1001B8004BD05195002730FB02F932FB01F931FB96
:1001C80000F917E001270068002E142E252E23E0E1
:1001D80072D03AD05195042E152E22E06CD0089595
:1001E80033D0112732FB11F920911801022F027028
:1001F800011791F021F92093180100E430FB05F96B
:1002080031FB04F9002E1124222423E054D0442386
:1002180019F4552309F417C0002730FB05F931FB01
:1002280004F946FB00F947FB01F956FB02F957FBB5
:1002380003F90064002E042F0F73102E052F0F737F
:10024800202E23E038D00895F894462F77FF0FC06A
:100258000F931F93062F172F01951095103022F03A
:1002680011F4003808F040E81F910F9106C0703073
:1002780022F011F46F3708F04FE7582F97FF0FC09F
:100288000F931F93082F192F01951095103022F006
:1002980011F4003808F050E81F910F9106C0903013
:1002A80022F011F48F3708F05FE766277727882751
:1002B8009927789408953F93BB27AA273D9100DF9B
:1002C8002A95E1F73F91089515E005B1006205B957
:1002D80041E034EFA89515DF05B10F7D05B941E080
:1002E80034EFA8950EDF1A9581F715E01A9561F39A
:1002F800F8943FEF7DD07894003031F756D0B6F3BC
:100308004CD00A3F99F742E038E5FBDE4ED0102F7B
:100318004CD043D01A3A09F0D7CF03E000930E012E
:100328006627772788279927089537D015E01A95E3
:1003380081F03F93F89433EF5BD03F9159D0789494
:1003480034D0AEF32AD00C3F21F00A3F81F7309326
:100358001001089515E01A9549F0F89449D0789459
:1003680024D01BD0C6F30A3F11F0F5CFADCF0895C6
:10037800689415E01A9551F0F89434EF39D07894D0
:1003880014D00BD0BEF30A3F11F0F4CFE8940091DB
:10039800180101600093180108950F930027009336
:1003A8000C0100930D010F9108951F932F933F9314
:1003B800AF93BF9368941127222731E0130F30E0E1
:1003C800231F283C79F000910C0130910D01031B8B
:1003D800A2F399F3BB27A8E0A30F339530930D013F
:1003E8000C91E894BF91AF913F912F911F9108957F
:1003F8001F932F933F930AB10B7F0AB90BB1046087
:100408000BB90AB10F7E0AB90BB100610BB994E0C0
:1004180080EB0197F1F70BB10B7F0BB90AB10460C0
:100428000AB994E080EB0197F1F70BB10F7E0BB995
:100438000AB100610AB980EA00008150E9F70AB1FF
:100448000B7F0AB90BB104600BB980EA0000815038
:10045800E9F70027112721E0020F20E0121F1A30C8
:1004680019F04A99F8CF0EC00AB10B7F0AB90BB13F
:1004780004600BB90AB10F7E0AB90BB100610BB960
:1004880001E03CC028E011E0032F01700F9339F020
:100498000AB10F7E0AB90BB100610BB906C00BB1E6
:1004A8000F7E0BB90AB100610AB90F9110274A9B58
:1004B800FECF4A99FECF36952A9531F7112339F0A8
:1004C8000AB10F7E0AB90BB100610BB906C00BB1B6
:1004D8000F7E0BB90AB100610AB94A9BFECF4A994F
:1004E800FECF0AB10F7E0AB90BB100610BB94A9B66
:1004F800FECF4A99FECF4A9BFECF002711271160F5
:100508001CBB3F912F911F9108950F930FB70F9325
:100518001F932F933F934F93AF93BF9300271127B8
:1005280021E0020F2227121F113019F04A99F8CF43
:1005380001C068C04A9BFECF4C991FC0442728E0E1
:1005480000274A99FECF4A9BFECF10E84C9B112703
:100558000695012B41272A95A1F7302F4A99FECFFE
:100568004A9BFECF10E84C9911274A99FECF4A9B27
:10057800FECF4C9B02C0141721F00FDF3EEF38DF8F
:10058800CFCF00910C01083009F43CC0BB27A8E08C
:10059800A00F039500930C013C9300911801102FB4
:1005A800117081F100910C0110910E01011752F1A7
:1005B80036D084FC04C0690D9924791D03C0919438
:1005C8006919704085FE05C0A1948A0DAA249A1D58
:1005D80002C08A199040182D177000910B0101175D
:1005E80081F010930B0100910A01083051F0039536
:1005F80000930A01B1E0A09108011D93A770A09390
:100608000801CBDE002701600CBBBF91AF914F9171
:100618003F912F911F910F910FBF0F9118950AB11C
:1006280080FA05F981FA06F90AB920911201309188
:100638001301092D84FC04C0200F0027301F03C0BC
:100648000195201B30402093120130931301209113
:100658001401309115010A2D85FC04C0200F0027D4
:10066800301F03C00195201B3040209314013093A4
:10067800150108950F930FB70F931F932F933F936F
:10068800109111011370209112013091130122234E
:1006980019F4332309F40BC037FD04C01395215016
:1006A800304005C01A9501E0200F0027301F209325
:1006B8001201309313011370009111010C70012B7A
:1006C8000093110103E0112319F0000F1A95E9F7BF
:1006D80015B102FB10F903FB11F915B910911101BD
:1006E8001695169513702091140130911501222347
:1006F80019F4332309F40BC037FD04C013952150B6
:10070800304005C01A9501E0200F0027301F2093C4
:1007180014013093150113701F9300911101110FEB
:10072800110F0370012B009311011F910CE011238D
:1007380019F006951A95E9F715B100FB12F901FBB6
:1007480013F915B93F912F911F910F910FBF0F9179
:10075800189511241FBECFEFD8E0CDBFDEBF34B748
:1007680030931601332734BF0AB10B7E0AB90BB197
:1007780004610BB90027026000936900002701603B
:100788000DBB002701600CBB04B1036004B905B1BF
:100798000C7F05B904B10C6004B905B1037F05B934
:1007A8000AB10F790AB90BB10F790BB904B10F7EF1
:1007B80004B905B10F7E05B90AB10F770AB90BB1B3
:1007C80000680BB904B1006204B94ADC30E04FDCC0
:1007D800E4DD02E004BD02E005BD04E607BD02E079
:1007E80000936E00A89508E1009360000EE0009366
:1007F800600030911601387061F433E030931901CC
:100808003CE330930F0100270093110134E030934B
:100818001701009312010093130100931401009330
:100828001501009308010093090100930A01009340
:100838000B0100931801442734E663DC112711608B
:100848001CBB789452DD05B1006205B9442734E633
:1008580058DC05B10F7D05B9A8953091160138709F
:1008680089F020911701322F337001DC322F369531
:10087800369531700FDC387011F033E015DC3091AB
:10088800100104C009B13CE304FD38EC4EDD85DD00
:100898003AEE60DD6DDD97D0A895009118010078DB
:1008A80079F420911801022F047019B117FB12F97D
:1008B80022F9209318011470011711F00AF041D0A1
:1008C8000091190104FDE8CF30910F01332369F439
:1008D80000910A01002339F4062F072B21F4082F71
:1008E800092B09F4D9CF06D0D7CF1FDD3327309392
:1008F8000F01D2CF00910A01002351F00A9500930D
:100908000A01B1E0A09109013D91A770A0930901E6
:1009180030910B0105B1006205B90091180100770B
:10092800003531F0003031F0003731F033DC05C0EC
:1009380019DC03C03DDC01C053DC05B10F7D05B9EE
:10094800089533273093170192DB4CD044273EE0BB
:10095800D8DB3DE4B5DB3CE330930F01309119015E
:10096800307E336030931901F894662777278827FB
:10097800992760930A0160930B01609308016093C3
:10098800090178940895009118010F780065009383
:10099800180131E07FDB33E087DB309117013370DA
:1009A8003C60309317010895009118010F78006199
:1009B8000093180131E06EDB309117013370346019
:1009C800309317010895009118010F780060009383
:1009D800180131E05FDB30911701337034603093D8
:1009E80017010895009118010F7800670093180106
:1009F80030E050DB309117013370309317010895C0
:100A08000F930FB70F931F932F933F930091C60037
:100A18000F7720911801122F13FD97C02227EAE9BA
:100A2800FBE01591112349F0011709F499C011E071
:100A3800E10F1127F11F2395F4CF209118010A32F5
:100A480009F47FC00434F9F0003509F473C00335A4
:100A580009F468C0043509F467C0053509F466C0AF
:100A6800063509F465C00336A1F00636C1F00B3629
:100A7800F9F00D3601F1033739F1043761F105302A
:100A880009F446C077C030911901306130931901DB
:100A980071C0EAEAFBE024DB30E012DB6BC0309186
:100AA80018013077369536953695306109DB62C086
:100AB80033E306DB5FC0009118010068009318015A
:100AC8003327D5DA80DF56C03091190134FB3FE077
:100AD80036F9F6DA4FC0EAE8FBE0022F06950695EC
:100AE800069506950770E00F0027F01F3491E8DAA5
:100AF800009119010F7104FD08C0E2E9FBE0E00F65
:100B08000027F01F3491DCDA35C034E4D9DA32C07A
:100B180030FB02F932FB01F931FB00F9002E23E02A
:100B2800CADB28C030DF26C03FDF24C04CDF22C02C
:100B380059DF20C030911901306130931901DADE94
:100B480019C028602093180115C0277F2093180129
:100B58000E362AF0023718F4302F3E5688DA0AC0CB
:100B680030911901307E322B309319013491309332
:100B78000F0100C03F912F911F910F910FBF0F914F
:100B88001895555457423F5341564A4B4C524D5174
:100B98004E4F4A0A4B144C2852284D3C51644EC8BB
:100BA80000000D0A4C414D454D4F555345434F4E9E
:100BB8005645525445522056312E3135202042593F
:100BC800204A4F484E20224C414D45475559222036
:100BD80057494C424552542056494C4C414D4F526E
:100BE8000D0A323032312D32303232204D454944EF
:100BF8004F2D54454B204B595320544543482048CA
:100C080041524457415245204449564953494F4E51
:100C18000D0A52454C454153454420554E444552D2
:100C2800204D504C205632200D0A2254484552453A
:100C38002053484F554C442042452046494C544582
:100C4800525320414741494E5354203C50524F4A39
:100C58004543544E414D453E2D4445562054595028
:060C68004553220D0A00B5
:00000001FF
