:020000020000FC
:080000000C940A030C947F022A
:040048000C94FD0314
:1000680008E90093C10006E00093C20008950F93C9
:100078001F93ECEFF0E0330FE30F3327F31F0591E5
:1000880014911093C5000093C4001F910F91089517
:10009800313021F034E03093C200089536E03093D7
:1000A800C20008950F930091C2000E7C30FB04F942
:1000B80031FB05F90093C2000F9108953F933091E9
:1000C800C00035FFFCCF3F913093C60008950091E2
:1000D800C00005FDFCCF0091C6000895EF93FF9383
:1000E8003F933591332311F0E9DFFBCF3F91FF9127
:1000F800EF9108954003A001CF0067000F93032FED
:10010800042B002369F000273150400B0FE00F93B8
:1001180000270A950A95F1F70F910A95C1F7EFCFD5
:100128000F9108950F931F932F9322E0022F0A95A2
:10013800032F21F006950695069506950F703F93B7
:1001480030E3300F3A3318F00A5031E4300FB6DF9D
:100158003F912A9559F72F911F910F91089571D0CA
:10016800002730FB02F932FB01F931FB00F9419518
:1001780047FB04F957FB03F9006847FD419557FD14
:100188005195002E142E252E23E092D0089559D093
:10019800002730FB02F932FB01F931FB00F9002E90
:1001A800142E252E23E084D008954BD05195002796
:1001B80030FB02F932FB01F931FB00F917E00127A6
:1001C8000068002E142E252E23E072D03AD05195C7
:1001D800042E152E22E06CD0089533D0112732FB5F
:1001E80011F920911001022F0270011791F021F9E5
:1001F8002093100100E430FB05F931FB04F9002ECF
:100208001124222423E054D0442319F4552309F45B
:1002180017C0002730FB05F931FB04F946FB00F94C
:1002280047FB01F956FB02F957FB03F90064002E5E
:10023800042F0F73102E052F0F73202E23E038D0B4
:100248000895F894462F77FF0FC00F931F93062F3A
:10025800172F01951095103022F011F4003808F08E
:1002680040E81F910F9106C0703022F011F46F37EB
:1002780008F04FE7582F97FF0FC00F931F93082FD1
:10028800192F01951095103022F011F4003808F05C
:1002980050E81F910F9106C0703022F011F48F378B
:1002A80008F05FE7662777278827992778940895C5
:1002B8003F93BB27AA273D9101DF2A95E1F73F919C
:1002C800089515E005B1006205B941E034EF16DF85
:1002D80005B10F7D05B941E034EF10DF1A9591F7AC
:1002E80015E01A9571F3F8943FEF78D078940030C0
:1002F80041F751D0B6F347D00A3F99F742E038E5C5
:10030800FDDE49D0102F47D03ED01A3A09F0D9CF98
:1003180015E01A9569F0F89433EF60D03CE35ED0AD
:10032800789439D0B6F32FD00C3F11F00A3F89F7F3
:1003380003E000930E0115E01A9551F0F8943AEE97
:100348004DD0789428D01FD0BEF30A3F11F0F4CFD7
:10035800B8CF66277727882799270895689415E0E6
:100368001A9551F0F89434EF39D0789414D00BD012
:10037800BEF30A3F11F0F4CFE89400911001016038
:100388000093100108950F93002700930C01009328
:100398000D010F9108951F932F933F93AF93BF9330
:1003A80068941127222731E0130F30E0231F283CDF
:1003B80079F000910C0130910D01031BA2F399F320
:1003C800BB27A8E0A30F339530930D010C91E89457
:1003D800BF91AF913F912F911F9108951F932F9334
:1003E8003F930AB10B7F0AB90BB104600BB90AB18C
:1003F8000F7E0AB90BB100610BB994E080EB01974D
:10040800F1F70BB10B7F0BB90AB104600AB994E09C
:1004180080EB0197F1F70BB10F7E0BB90AB10061C0
:100428000AB980EA00008150E9F70AB10B7F0AB9DE
:100438000BB104600BB980EA00008150E9F700278E
:10044800112721E0020F20E0121F1A3019F04A99F3
:10045800F8CF0EC00AB10B7F0AB90BB104600BB913
:100468000AB10F7E0AB90BB100610BB901E03CC0BB
:1004780028E011E0032F01700F9339F00AB10F7EC5
:100488000AB90BB100610BB906C00BB10F7E0BB9ED
:100498000AB100610AB90F9110274A9BFECF4A9909
:1004A800FECF36952A9531F7112339F00AB10F7E20
:1004B8000AB90BB100610BB906C00BB10F7E0BB9BD
:1004C8000AB100610AB94A9BFECF4A99FECF0AB128
:1004D8000F7E0AB90BB100610BB94A9BFECF4A994E
:1004E800FECF4A9BFECF0027112711601CBB3F910E
:1004F8002F911F9108950F930FB70F931F932F9369
:100508003F934F93AF93BF930027112721E0020F2A
:100518002227121F113019F04A99F8CF01C069C07B
:100528004A9BFECF4C991FC0442728E000274A99D0
:10053800FECF4A9BFECF10E84C9B11270695012B56
:1005480041272A95A1F7302F4A99FECF4A9BFECF23
:1005580010E84C9911274A99FECF4A9BFECF4C9B35
:1005680002C0141721F00FDF3EEF38DFCFCF009124
:100578000C01083009F43DC0BB27A8E0A00F039583
:1005880000930C013C9300911001102F117089F118
:1005980000910C0110910E0101175AF184FC04C05E
:1005A800690D9924791D04C09194691999247909D0
:1005B80085FE05C0A1948A0DAA249A1D03C08A1934
:1005C800AA249A09182D177000910B01011781F0C0
:1005D80010930B0100910A01083051F00395009324
:1005E8000A01B1E0A09108011D93A770A09308012A
:1005F800CADE002701600CBBBF91AF914F913F91BC
:100608002F911F910F910FBF0F91189511241FBEA5
:10061800CFEFD8E0CDBFDEBF0AB10B7E0AB90BB170
:1006280004610BB90027026000936900002701608C
:100638000DBB002701600CBB0AB10F770AB90BB1DB
:1006480000680BB904B1006204B90ADD30E00FDDBF
:100658009ADE0027009308010093090100930A011C
:1006680000930B010093100100930F0133E03093C6
:100678001101442734E642DD112711601CBB789430
:100688002FDE05B1006205B9442734E637DD05B130
:100698000F7D05B9A89562DE9AD000911001007807
:1006A80079F420911001022F047019B117FB12F987
:1006B80022F9209310011470011711F00AF053D099
:1006C8000091110104FDE9CF00910F01002369F4A5
:1006D80000910A01002339F4062F072B21F4082F73
:1006E800092B09F4DACF18D0D8CF4DDE15E01A95CA
:1006F80079F0F89433EF72DE30910F016FDE43DE4C
:10070800789449DEA6F33FDE0C3F11F00A3F79F7F3
:10071800332730930F01C1CF00910A01002351F014
:100728000A9500930A01B1E0A09109013D91A770D3
:10073800A093090130910B0105B1006205B9009140
:1007480010010077003531F0003031F0003731F01A
:100758001EDD05C004DD03C028DD01C03EDD05B196
:100768000F7D05B90895332782DC3AD044273EE04F
:10077800C5DC3DE4A3DC3CE330930F01309111016B
:10078800307E336030931101F894662777278827E5
:10079800992760930A0160930B01609308016093A5
:1007A800090178940895009110010F78006500936D
:1007B800100131E06DDC33E075DC08950091100123
:1007C8000F7800610093100131E062DC0895009118
:1007D80010010F7800600093100131E059DC089592
:1007E800009110010F7800670093100130E050DC91
:1007F80008950F930FB70F931F932F933F93009173
:10080800C6000F7720911001122F13FD97C02227E1
:10081800ECE8F9E01591112349F0011709F499C0A2
:1008280011E0E10F1127F11F2395F4CF209110015A
:100838000A3209F47FC00434F9F0003509F473C0B2
:10084800033509F468C0043509F467C0053509F4AF
:1008580066C0063509F465C00336A1F00636C1F056
:100868000B36F9F00D3601F1033739F1043761F130
:10087800053009F446C077C03091110130613093DA
:10088800110171C0ECE9F9E029DC30E017DC6BC03C
:1008980030911001307736953695369530610EDCFB
:1008A80062C033E30BDC5FC0009110010068009365
:1008B80010013327DCDB8BDF56C03091110134FB8C
:1008C8003FE036F9FBDB4FC0ECE7F9E0022F069575
:1008D8000695069506950770E00F0027F01F3491DE
:1008E800EDDB009111010F7104FD08C0E4E8F9E0A7
:1008F800E00F0027F01F3491E1DB35C034E4DEDB84
:1009080032C030FB02F932FB01F931FB00F9002E4D
:1009180023E0CEDC28C047DF26C050DF24C057DFE5
:1009280022C05EDF20C03091110130613093110187
:10093800F3DE19C028602093100115C0277F20938B
:1009480010010E362AF0023718F4302F3E568FDB8E
:100958000AC030911101307E322B3093110134914D
:1009680030930F0100C03F912F911F910F910FBF3E
:100978000F911895555457423F5341564A4B4C5284
:100988004D514E4F4A0A4B144C2852284D3C516445
:100998004EC800000D0A4C414D454D4F5553454337
:1009A8004F4E5645525445522056302E3132202053
:1009B8004259204A4F484E20224C414D45475559EF
:1009C800222057494C424552542056494C4C414DDF
:1009D8004F520D0A323032312D32303232204D45ED
:1009E80049444F2D54454B204B59532054454348B7
:1009F8002048415244574152452044495649534999
:100A08004F4E0D0A52454C454153454420554E44DE
:100A18004552204D504C205632200D0A225448454C
:100A280052452053484F554C442042452046494C96
:100A38005445525320414741494E5354203C50524B
:100A48004F4A4543544E414D453E2D44455620544A
:080A580059504553220D0A001C
:00000001FF
